8=FIX.4.2|9=153|35=D|34=1|49=EQUITY-TRADER|52=20150930-13:44:30.987|56=NASDAQ|11=EQUITY-TRADER-1443620670854|21=1|38=50|40=2|44=10|54=1|55=AAPL|60=20150930-13:44:30.857|10=028|